:020000021000EC
:1000B4004111814522C406C62A84EF00302283A759
:1000C40001D591C382972285EF2020489307000031
:1000D40091C7171500001305C5814DA08280974173
:1000E4000000938161E51385C1D413864109098E0B
:1000F4008145EF00D004170500001305857FBD2856
:10010400EF00407802454C000146992855B783C753
:10011400C1D485EB930700008DC34111172500005E
:100124001305456006C697000000E7000000B240D2
:1001340085472386F1D44101828085472386F1D403
:10014400828082809307000099CB9385C1D81725BC
:1001540000001305255D170300006700000082807E
:10016400411106C622C40008C967138507715529C1
:1001740081473E85B240224441018280AA8581465E
:10018400014601456F00700C173600001306C65A6D
:100194009715000093850530173500001305C55ADF
:1001A4002DA64C41411122C406C6938741DA2A8404
:1001B4006384F500EF10C02D0C449387C1E0638580
:1001C400F5002285EF10C02C4C44938741E76388E7
:1001D400F50022852244B24041016F10602BB240E9
:1001E400224441018280FC51858B91E783D7C5006D
:1001F40093F7072099C301458280A84D411106C693
:10020400EF000073B240014541018280FC51858BAF
:1002140091E783D7C50093F7072099C301458280EE
:10022400A84D411106C6EF006071B240014541017D
:100234008280011106CE22CC26CA138441DA4AC830
:100244004EC652C417070000130747F491472146CE
:100254008145138501E023A8E1D45CC42320040074
:100264002322040023240400232204062328040058
:10027400232A0400232C0400EF00606C170A0000FA
:10028400130AEA3A970900009389093E1709000006
:1002940013098942970400009384C4451385C1DF80
:1002A40023204403232234032324240344D440CCB2
:1002B400A52DC167A50721468145138581E67CD814
:1002C4002324040623260406232804062326040CD8
:1002D400232C0406232E0406232004088D2593874B
:1002E400C1E0138541E62324440923263409232845
:1002F4002409232A94082322F4083D25B707020081
:10030400C90721468145138501ED232EF40C2328CA
:10031400040C232A040C232C040C232A0412232067
:10032400040E2322040E2324040E112D938741E787
:100334002328440F232A340F232C240F232E940E16
:100344002326F40E6244F240D2444249B249224A7E
:100354001385C1EC0561C9AB01114EC6AA89138589
:1003640041D706CE22CC26CA4AC8D92383A701D5B1
:10037400C5CF173900001309293CFD5483274900D0
:1003840003248900FD1763D70700ADA01304840676
:10039400638297060317C400FD176DFBC1778507B9
:1003A4005CC41305840523220406BD2B138541D7A1
:1003B40071231305C40523200400232404002322ED
:1003C400040023280400232A0400232C04002146CB
:1003D4008145B52323280402232A0402232204048A
:1003E40023240404F24022856244D2444249B2499F
:1003F400056182800324090019C0228941B793054D
:10040400C01A4E85EF00702A2A840DC19147310528
:10041400232004005CC008C41306001A8145052388
:1004240023208900228999BF2935A1B723200900F7
:10043400138541D72123B14723A0F90065B74111A2
:1004440022C42A84138541D706C6DD215C5889EB72
:1004540083A701D5170700001307E7D458D899C715
:100464002244B240138541D74101C9A9D93322445A
:10047400B240138541D74101D1A1138541D74DA97C
:10048400138541D765A94111138541D706C64D216E
:10049400B240173600001306262A970500009385FC
:1004A400C5D40145410115A04111173600001306BA
:1004B400A628970500009385A5D5014506C63120D9
:1004C400B240138541D7410195A979714AD04ECEE6
:1004D40052CC56CA5AC85EC606D622D426D22A8B15
:1004E400AE8BB28A014A85497D5983A44A0003A48C
:1004F4008A00FD1463C404028357C40063FBF9003B
:100504008317E400A2855A8563852701829B336A99
:10051400AA00FD1413048406E39024FF83AA0A00AE
:10052400E3950AFCB250225492540259F249D24A39
:10053400424BB24B5285624A45618280797122D422
:100544002A842E8526D206D6AE8471295C581308D7
:100554001500972500009385A51C05461408094736
:1005640026C82ACA42C62ECC32CE36C23AC4044465
:10057400D5C7FC500397C40093F61700B1C6931671
:10058400270163C00606F976FD160966F58F518FBB
:10059400FCD02396E40022855000A685EF100028A5
:1005A4003334A000FC50330480401364A400858BD2
:1005B40091E783D7C40093F7072095CBB2502285E7
:1005C4002254925445618280937607208DCA9316F3
:1005D4002701E3DA06FA13972701E35E07FA7D544D
:1005E400C9BF13972701E35807FA7D54C1BFA84C2C
:1005F400B126B25022852254925445618280A84C7F
:10060400052E0397C400FC5093162701E3DD06F67C
:1006140013972701E35107F87D5451BF228505350F
:1006240089BFAA8503A5C1D311BF411122C42E8459
:100634008395E50006C6C922634905003C48B240DB
:10064400AA973CC82244410182808357C4007D7725
:100654007D17F98FB2402316F400224441018280B1
:10066400014582808397C500011122CC26CA4AC85D
:100674004EC606CE13F707102E843289B689AA8493
:1006840015E37D777D17F98F8315E4002316F400B5
:100694006244F240CE864A86B24942492685D24413
:1006A400056171AA8395E5008946014619228317DD
:1006B400C400C1BF411122C42E848395E50006C63F
:1006C400CD287D578317C400630BE5000567D98FD8
:1006D400B24028C82316F4002244410182807D7769
:1006E4007D17F98FB2402316F40022444101828021
:1006F4008395E50009A0411122C42A842E8523AAEA
:1007040001D406C6EF10D061FD576306F500B24070
:1007140022444101828026C2938441D59C4099C7DA
:10072400B2401CC02244924441018280B24022441F
:1007340092444101828083A7C1D3638BA7066C4195
:10074400011126CA06CE22CCAA849DC54AC84EC62B
:10075400014993090008B3872501804319C4A28580
:1007640000402685252365FCEC401109E31539FF7B
:100774002685292B4249B2498C5C99C126853923A7
:10078400A04011C4A28500402685092365FCEC44E1
:1007940099C12685E529DC5899C76244F24026852B
:1007A400D24405618287F2406244D244056182806A
:1007B400828041112E8722C4B2852A8436863A85E6
:1007C40023AA01D406C6EF10F05FFD576306F500B7
:1007D400B24022444101828026C2938441D59C4088
:1007E40099C7B2401CC02244924441018280B24065
:1007F400224492444101828041112E8722C4B28551
:100804002A8436863A8523AA01D406C6EF10305EC0
:10081400FD576306F500B24022444101828026C29E
:10082400938441D59C4099C7B2401CC02244924451
:1008340041018280B24022449244410182804111AC
:100844002E8722C4B2852A8436863A8523AA01D407
:1008540006C6EF105061FD576306F500B24022440E
:100864004101828026C2938441D59C4099C7B240FD
:100874001CC02244924441018280B24022449244EA
:1008840041018280411122C44AC0973700009387F6
:10089400A7E917340000130424E906C626C23389E5
:1008A4008740638B87001359294081441C40850489
:1008B40011048297E3EC24FF97370000938747E7FE
:1008C40017340000130444E6338987401359294040
:1008D4006389870081441C40850411048297E3ECFA
:1008E40024FFB240224492440249410182804111D2
:1008F40022C4973700009387A7E31734000013043A
:1009040064E31D8C26C206C69354244081C8711426
:100914003E941C40FD1471148297E5FCB2402244BD
:10092400924441018280828082808280828082809F
:1009340082800545828005458280828082803D4395
:100944002A876373C3029377F700BDEFADE593760F
:1009540006FF3D8ABA960CC34CC30CC74CC741076B
:10096400E36BD7FE11E28280B306C3408A06970286
:10097400000096966780A6002307B700A306B70079
:100984002306B700A305B7002305B700A304B700E7
:100994002304B700A303B7002303B700A302B700DF
:1009A4002302B700A301B7002301B700A300B700D7
:1009B4002300B700828093F5F50F93968500D58DBB
:1009C40093960501D58D61B7939627009702000091
:1009D40096968682E78086FA9680C1171D8F3E968A
:1009E400E374C3F8A5B7937735002A879DEFB786DC
:1009F4007F7F9386F6F7FD5510431107B377D60032
:100A0400B697D18FD58FE389B7FE8346C7FFB30767
:100A1400A7408DCA8346D7FF9DC20345E7FF333500
:100A2400A0003E9579158280F9D283470700050717
:100A340093763700F5FB098F1305F7FF8280138542
:100A4400D7FF82801385C7FF828001114AC81389AA
:100A540001D422CC2A840325090026CA4EC652C4D6
:100A640006CEAE84328AB689E135138781D71C431A
:100A7400B9CFD843FD450325090063CEE50493159A
:100A8400270019EC0507D8C3AE9784C7453D014537
:100A9400F2406244D2444249B249224A056182800A
:100AA4003388B7002324480983A6871805463316DC
:100AB400E600D18E23A4D718232438118946E313E2
:100AC400D4FC83A6C718D18E23A6D71865BF9387F5
:100AD400C1ED1CC379BF9D357D555DBF79715EC67F
:100AE400938B01D45AC82A8B03A50B0052CC138ACA
:100AF40081D74AD062C406D62E8C1D3D03290A0034
:100B0400630009044ECE56CA22D426D266C2FD59C9
:100B1400854A832449001384F4FF634E04008A0445
:100B2400CA9463090C0283A74410638587037D1468
:100B3400F114E31A34FF22549254F249D24A924CEB
:100B440003A50B00B2500259624A424BB24B224CED
:100B54004561EDB383274900D440FD17638C8704B6
:100B640023A2040095C28327891833978A00832C13
:100B74004900F98F99EF82960327490083270A00D9
:100B840063179703639527037D14F114E31B34F96A
:100B94005DB78327C91883A544087D8F19EF5A854B
:100BA40082960327490083270A00E30D97FDC1D7E6
:100BB4003E8985B72322890075B72E8582966DBF3D
:100BC400011122CC26CA4AC84EC652C4AE8906CEEA
:100BD4002A89173A0000130A2AC9EF00700A8327EA
:100BE4008A0005643D14C4438567F1982694330450
:100BF400344131807D143204634BF40081454A85CD
:100C0400EF10A01083278A00A697630EF5004A858B
:100C1400EF009007F2406244D2444249B249224A6A
:100C2400014505618280B30580404A85EF10E00DDF
:100C3400FD576309F5021387C10683268A001C4306
:100C4400818C93E414004A85818FC4C21CC3EF00D5
:100C5400B003F2406244D2444249B249224A0545B3
:100C64000561828081454A85EF10200A03278A00A6
:100C7400BD46B307E540E3DCF6F883A641D493E729
:100C840017005CC3158D23A6A10651B7F1CD411100
:100C940022C426C22E84AA8406C6EF00607E832561
:100CA400C4FF130784FF173800001308E8BB93F749
:100CB400E5FF3306F70054420325880093F8150036
:100CC400F19A630DC51054C23305D6004841058915
:100CD40063990806032384FF97380000938848B972
:100CE400330767400C479A97638E150D0323C7009B
:100CF40023A665002324B300630B051093E61700B5
:100D040054C31CC29306F01F63EAF60693F687FFEA
:100D1400A10683254800C296904213D55700854703
:100D2400B397A700CD8F938586FF10C74CC72322A6
:100D3400F80098C258C62244B24026859244410124
:100D4400A1A705E5B69797380000938868B21446C2
:100D540013E51700B305F7006387160F5046D0C696
:100D640014C648C39CC179BF828093E51500232E25
:100D7400B4FE1CC29306F01FE3FAF6F893D697006C
:100D840011466368D60893D66700938596038E054B
:100D940013868603C2959441E1156396D5007DA818
:100DA40094466386D500D042719AE3EBC7FECC46E5
:100DB4004CC714C72244B24098C526859244D8C66D
:100DC4004101D9A535E54C461046BE9693E7160079
:100DD4004CC690C55CC3369714C3B1BFBE96639A24
:100DE4000800832584FF0D8F5C471047AE965CC6D0
:100DF40090C713E6160083A781D450C32324E800C8
:100E0400E3EBF6F283A541D826855D3B2DB7B69773
:100E14003DBF51466373D60213064005636AD60488
:100E240093D6C7009385F6068E051386E6069DB70E
:100E340093E6170054C31CC2FDBD9385C6058E05F9
:100E44001386B60581BF232AE8002328E800232659
:100E540017012324170148C39CC1F1BD0325480091
:100E640009868547B397C700C98F2322F80089B73D
:100E740013064015636AD60093D6F7009385860758
:100E84008E051386760739B713064055636AD60074
:100E940093D627019385D6078E051386C607DDBD35
:100EA4009305803F1306E007F5B579714AD006D65D
:100EB40022D426D24ECE9387B50059472A89636837
:100EC400F704C14463EAB416652BE14789459739B1
:100ED400000093896999CE97C043138787FF630AFB
:100EE400E4305C4054441044F19BA297D84354C668
:100EF40090C6136717004A85D8C37923B2501305E7
:100F04008400225492540259F2494561828093F438
:100F140087FF63C3071263E1B4129D239307701F15
:100F240063F8973893D79400638307121147636774
:100F3400F73093D764009385970313888703139638
:100F4400350097390000938929924E9640426116E4
:100F5400630186023D4539A0544463590726630A58
:100F6400D60036845C40F19B33879740E356E5FE18
:100F7400C28503A40901973800009388688F630D24
:100F8400141F5C40BD46F19B3387974063C7E6322C
:100F940023AA190123A81901635207301307F01F6C
:100FA40003A54900636CF72413F787FF21074E97C5
:100FB400144313D657008547B397C7005D8D930735
:100FC40087FF14C45CC423A2A90000C3C0C693D77E
:100FD400254005463316F6006362C508B377A600BC
:100FE40081EF0606F199B377A600910591E706060D
:100FF400B377A6009105E5DF3D48139335004E9382
:101004001A855C452E8E630BF524D8433E84DC4759
:10101400719BB3069740634AD824E3C606FE229721
:10102400544310444A8593E6160054C35CC690C7E3
:10103400A1291305840029A0B1472320F900014503
:10104400B250225492540259F249456182801306E7
:101054000020930500041308F003E5B503A48900F8
:101064005AC85C4013FBC7FF63679B0033079B4070
:10107400BD4763C8E71266C2938C41D456CA03A71E
:101084000C0083AA41D852CC5EC6FD57330A6401D2
:10109400A69A6302F72C8567BD07BE9AFD77B3FA5B
:1010A400FA00D6854A85EF005046FD57AA8B630B9C
:1010B400F53262C46365450D138CC10683250C00AB
:1010C400D6952320BC002E876302AA3283A60C0087
:1010D400FD57638AF632B3874B41BA972320FC004D
:1010E40093FC7B0063830C28B38B9B418565A10B28
:1010F400A105DE9AB3859541B3855541D20513DA2E
:101104004501D2854A85EF005040FD576309F53209
:1011140033057541B30A450103270C0023A4790163
:1011240093E71A00B305EA0023A2FB002320BC00C6
:1011340063053403BD4663FA6625584093074BFFA5
:10114400E19B058B5D8F58C015463307F40050C3EF
:1011540010C763E8F61E83A74B00138701D8144316
:1011640063F3B6000CC31387C1D7144363F3B6000B
:101174000CC3224C5E8411A803A5490089BD630BEE
:10118400342503A48900224C5C40F19B33879740AB
:1011940063E19720BD4763DEE71E624AD24AB24B41
:1011A400924C93E714005CC0A29423A499001367A3
:1011B40017004A85D8C0C92CB250130584002254A4
:1011C400424B92540259F249456182801044A297DD
:1011D400D84354C690C6136717004A85D8C36D24F4
:1011E400B25013058400225492540259F2494561C5
:1011F4008280C0478905E38E87D6E5B113D797006F
:10120400914663F2E60ED14663EDE6181306C70570
:101214000E069306B7054E96184261166316E6004D
:101224002DAA18476306E6005443F19AE3EBD7FE70
:10123400504750C418C400C640C751BB5147637CD3
:10124400F70A13074005636AF71693D7C40093851A
:10125400F7061388E70613963500E5B1050E937774
:101264003E002105CDC75C4579BB104493E51400CD
:101274004CC05CC690C7A29423AA990023A89900E5
:1012840093E71600229723A6140123A41401DCC0BB
:101294004A8514C3D52A130584005DB3A297D843A5
:1012A4004A8513671700D8C3C5221305840049BBB8
:1012B40093D534009387840019B993E6140054C07D
:1012C400A29423AA990023A8990093661700A297D1
:1012D40023A6140123A41401D4C04A8598C36D2203
:1012E40013058400B1BB13D76700130697030E06DA
:1012F400930687030DB79385C7051388B70513961F
:10130400350081B183278300FD156398671693F731
:1013140035006113E5FB03A749009347F6FFF98FF6
:1013240023A2F9000606E3EBC7D2E30906D233771A
:10133400F60011E706063377F600110E65DFF28535
:101344006DB9930584004A85EFF05F9483250C0002
:1013540083AB890009B5C10AA9B389868547B397C8
:10136400D7005D8D23A2A900E9B5B3855B01B30560
:10137400B040D20513DA4501D2854A85EF00F01852
:10138400FD57E317F5D8014A41BB224C854723A2F8
:10139400FB004A85D528624AD24A424BB24B924C52
:1013A40079B99306400563E3E60613D7C70013062D
:1013B400F7060E069306E706B9BD130740156363E7
:1013C400F70693D7F4009385870713887707139656
:1013D400350085BE138CC10603270C0056972320C5
:1013E400EC00EDB103A489005C4045B393174501BB
:1013F400E39E07CC83AB8900B3075B0193E7170037
:1014040023A2FB0099BB23A07C01D9B99306401504
:1014140063EDE60213D7F700130687070E0693065B
:101424007707D5BB13074055636DF70293D72401A3
:101434009385D7071388C7071396350019B6E11C9F
:10144400E69AB38A7A41014AC1B99306405563E1E9
:10145400E60213D727011306D7070E069306C7071C
:101464005DBB1306803F9305F0071308E007D1BC6A
:101474001306803F9306E00779BB83A749005DB557
:10148400138581D66FF0CFCA138581D66FF00FCB49
:10149400411106C64AC0C1C922C426C22E84AA84E8
:1014A40019C15C59D5C37C500317C400858BADEBBF
:1014B4001377072049CFA2852685C9205C542A8941
:1014C40091C74C4C26858297634505068357C40013
:1014D40093F70708ADE70C5891C993070404638593
:1014E400F5002685EFF08FFA232804026C4091C59D
:1014F4002685EFF0AFF923220404EFE01FF87C50B7
:1015040023160400858BBDC3284CEFF02FC2EFE0F7
:101514003FF7B240224492444A8502494101828005
:1015240059FB22449244B24001494A85024941018F
:1015340082808357C4007D5993F70708C9DF0C489C
:101544002685EFF0AFF441BFEFE07FEFA9BF284C51
:10155400EFF00FBE8317C400B9FF7C50858BF1F305
:10156400284CEFF0AFBD2244924475BF284CEFF0F5
:10157400EFBC59BFAA8503A5C1D319BF0397C50002
:10158400011122CC4EC606CE937787002E84AA89F9
:10159400E1E7856793870780D441D98F2396F500C7
:1015A4006359D010032884026302080A26CA9316DA
:1015B400370183A4090023A0090063C306104C4C1F
:1015C400014685464E850298FD572A866301F51229
:1015D4008317C40003288402918B99C758401C5870
:1015E400198E99C35C5C1D8E4C4C81464E850298C5
:1015F4007D578317C4006317E50C83A6090075475C
:101604006363D7103707402005073357D700058B8E
:101614007DCB10487D771307F77F7D8F2316E40079
:101624002322040010C01397370163530700CDCA67
:101634000C5823A09900D5C9930704046385F500C9
:101644004E85EFF0AFE4D24423280402F240624412
:10165400B2490145056182804AC803A90501630FA7
:10166400090426CA84410D8B23A02501B384244197
:10167400814711E3DC491CC4634690003DA82A99C4
:10168400635D90025C504C4CA6864A864E858297D8
:10169400898CE346A0FE8317C400424993E70704FC
:1016A400F2402316F4006244D244B2497D550561E8
:1016B4008280D45DE348D0EE51BFD244424979B729
:1016C400304819BF14487D771307F77F7D8F2316A1
:1016D400E4002322040014C013973701E35A07F4EB
:1016E4000C5828C823A09900A1F9D24485B783A730
:1016F4000900E38F07EC7547638AE700594763875E
:10170400E7008317C40093E7070459BF23A0990097
:10171400D2442DBF411122C426C206C64AC0AA849F
:101724002E8419C15C59BDC38317C40001499DC3EC
:101734007850058B01E793F7072085C72685A28596
:10174400353D7C502A89858B91E78357C40093F7F4
:1017540007209DC3B240224492444A850249410174
:101764008280284CEFF0CF9C2685A285013D7C50D9
:101774002A89858BE5F3D1BF284CEFF02F9CB2402A
:10178400224492444A85024941018280EFE03FCBE2
:1017940061BF3DC541114AC003A9C1D322C406C6D5
:1017A40026C22A84630509008327490395CF83173A
:1017B400C40081449DC37850058B01E793F707204B
:1017C40085CB4A85A2855D3B7C50AA84858B91E7B5
:1017D4008357C40093F7072085C3B24022440249CB
:1017E40026859244410182804A85EFE05FC5C1B7F6
:1017F400284CEFF0EF93F1B7284CEFF02F94F1BFA2
:1018040017260000130646F3970500009385C5F0DC
:1018140017250000130545F36FE03FCB1C46638A90
:1018240007180397C500797122D452CC56CA06D63C
:1018340093778700328AAA8A2E84B5C79C49A5C7A4
:1018440026D24AD04ECE5AC89377270083240A0062
:10185400BDCB370B0080130B0BC0814901494E8669
:10186400568563020914B7070080CA8663742B0186
:10187400938607C05C504C4C82976354A02C8327FA
:101884008A00AA993309A940898F2324FA00E1FB2D
:1018940092540259F249424B0145B2502254624AD1
:1018A400D24A45618280A2855685452C631F051A5C
:1018B4000317C40026D24AD04ECE5AC893772700C5
:1018C40083240A00D9F75EC662C493771700E5E75C
:1018D400B70B008066C2FD1B014B0149630F090A67
:1018E400937707200840032C840063820718E28C56
:1018F400636C891F93770748A5CB54480C4893978A
:101904001600B69793D9F701330CB540BE999307E7
:101914001C0093D91940CA974E8663F4F900BE8916
:101924003E86137707406306071EB2855685EFF09F
:10193400CFD7AA8C630A05200C486286ED21835711
:10194400C40093F7F7B793E707082316F400338529
:101954008C01338C8941232894012324840108C0F9
:10196400232A34014A8CCA8CDA856686F92E1C40F7
:101974001844CA89E6971CC083278A003307874125
:1019840018C4B38737412324FA0001494E9B63806E
:1019940007120317C400E31509F403AB040003A9F9
:1019A4004400A10425BF83A9040003A94400A104A1
:1019B4007DB501458280014B0145014C8149638E0F
:1019C400090425C5DA87CE8B63F33701BE8B084043
:1019D4001C48544863F7A7000329840036996340E0
:1019E400790763CCDB105C504C4C62865685829739
:1019F4002A896350A006330B2B41054563090B0E5E
:101A040083278A004A9CB3892941B3872741232429
:101A1400FA00D5F7B24B224CA5BD83A94400A68792
:101A2400A104E38C09FE03AC07004E86A945628538
:101A34009924630405100505330B854161B7E285DC
:101A44004A8621261C40A2855685CA971CC0D931D6
:101A54005DD18317C400B24B224C92540259F2490F
:101A6400424B93E707042316F4007D553DB51C480B
:101A740063E3A7045C486360F904CA8663F32B013B
:101A8400DE86B3E7F60258504C4C5A8656859D8E36
:101A94000297AA896354A00483278A003309394131
:101AA4004E9BB38737412324FA00E39407EEB24BED
:101AB400224C924CF1BBE28963738901CA894E8638
:101AC400DA85612418401C444E97B387374118C007
:101AD4001CC4F9F3A285568535395DDD8317C4002E
:101AE400B24B224C924C95BF4A8CCA8CB5BDA28590
:101AF40056850D31E30605F0A9BF5E86E285B12463
:101B040018441C405E8933077741DE9718C41CC013
:101B1400DDB55685FD2EAA8CE31B05E20C485685DF
:101B2400EFF0CF968317C4003147B24B224C924C4E
:101B340023A0EA0093F7F7F70DB7938719003E8BBC
:101B440059B58317C40011BFB14723A0FA00B24BA3
:101B54008317C400224C924C09B783A7C1D3411107
:101B640022C426C206C6AA842E8499C3D85B61CB3C
:101B74008317C40013F7870015C3184805CF13F75C
:101B840017002DC35C4823240400B307F0401CCC89
:101B94000145B240224492444101828013F7070177
:101BA40079C313F7470021E7184893E78700231602
:101BB400F40071F793F60728130600206390C60615
:101BC40093F61700C9C25848232404003307E040A1
:101BD40018CC13F707084DDF93E707042316F40026
:101BE4007D5545BF898B85EB5C481CC455B70C58A3
:101BF40081CD130704046387E5002685EFF00F8980
:101C04008317C40023280402184893F7B7FD23223E
:101C1400040018C059BF232404009DBF2685A28553
:101C240001278317C400184893F6170085C6544843
:101C340023240400B306D04014CC41DF91BF3E8579
:101C4400EFE0EFFF35B793F6270099EA504810C448
:101C540049D33DBF93F627000146F5FA5048C5BF66
:101C640023240400BDB7254793E7070498C023162F
:101C7400F4007D5539BF13773500AA8713F8F50FA3
:101C84002A830DC7B308C50039A083C60700638C37
:101C9400060711CBAA871385170013773500E3963F
:101CA40017FF014582807D161A961D8E8D4763F1BC
:101CB400C70493F5F50F93968500AE961397060126
:101CC4003703FFFEB7888080BE85BA961303F3EF0F
:101CD400938808081C41B58F3387670093C7F7FFC3
:101CE400F98FB3F7170191E771161105E3E4C5FE07
:101CF4004DDA2A9621A00505E305C5FA83470500B8
:101D0400E39B07FF82803E858280411122C42A849E
:101D14002E8523AA01D406C6EF001010FD576306D2
:101D2400F500B24022444101828026C2938441D509
:101D34009C4099C7B2401CC0224492444101828015
:101D4400B240224492444101828063F2A502338767
:101D5400C500637EE500B307C5001DCA8346F7FFCF
:101D6400FD177D172380D700E31AF5FE8280BD4757
:101D740063E1C702AA879306F6FF5DC28506BE9695
:101D840003C7050085078505A38FE7FEE39AD7FE01
:101D94008280B367B5008D8BAE88BDEF930706FFD5
:101DA40013F807FF41082A982A879441C10541077F
:101DB4002328D7FE83A645FF232AD7FE83A685FFC3
:101DC400232CD7FE83A6C5FF232ED7FEE31F07FDD2
:101DD400C19B3387170193050701AA971378C6009F
:101DE400C1072E8E9376F600630D0802F116F19A60
:101DF400369751073308154103A30500B38805013D
:101E0400910523A06800E399E5FE13874600B30516
:101E1400C701BA970D8A85B79306F6FFAA87B9BF9B
:101E24008280368689BFB3C7A5008D8BB308C500F1
:101E3400B1E78D4763F4C704937735002A87DDE75C
:101E440013F6C8FFB306E6409307000263C4D70441
:101E5400AE86BA876371C70203A80600910791068C
:101E640023AE07FFE3EAC7FE7D16198E719A91052A
:101E74001107B29532976366170182802A87E37E41
:101E840015FF83C7050005078505A30FF7FEE39A31
:101E9400E8FE8280945183A3050083A2450083AFAA
:101EA400850003AFC50083AE050103AE450103A35E
:101EB400850103A8C50113074702232ED7FE232E4D
:101EC40077FCB306E640232057FE2322F7FF2324A2
:101ED400E7FF2326D7FF2328C7FF232A67FE232CE7
:101EE40007FF93854502E3C7D7FA9DB783C605006C
:101EF400050793773700A30FD7FE8505B1D383C6B3
:101F04000500050793773700A30FD7FE8505F9FF72
:101F140005BF797126D206D6B284638E051422D405
:101F24004AD02E844ECE56CA52CC2A89EFF04FD5D1
:101F34000327C4FF9387B400D9469379C7FF930A54
:101F440084FF63F0F60C13FA87FF63CF070A636D0F
:101F54009A0A63D6490D62C4172C0000130CCC9066
:101F640003268C00B3863A01DC42630ED61213F6C4
:101F7400E7FF36965042058A7DE2F19B3386F900ED
:101F840063594609058B0DE75EC6832B84FF5AC847
:101F9400B38B7A4103A74B00719BBA97338B3701FC
:101FA40063574B23338BE90063544B1D424BB24BB5
:101FB400A6854A85EFE07FEFAA846305052C832775
:101FC400C4FF130785FFF99BD697638DE718138623
:101FD400C9FF9307400263E8C71E4D476368C716ED
:101FE400AA872287144394C35443D4C3184798C779
:101FF400A2854A85EFE09FC94A85EFF0EFC8224CDD
:10200400A9A0414AE3779AF4B1472320F900814417
:102014002DA8DC469846224CB2895CC798C783A792
:102024004A00B38649413D46858B33873A01636A4A
:10203400D604B3E7370123A2FA005C4393E7170001
:102044005CC34A85EFF04FC4A2842254B2500259B3
:10205400F249624AD24A2685925445618280058BB0
:1020640021FB5EC6832B84FF5AC8B38B7A4103A736
:102074004B00719B05BFB2509254B28545616FE02D
:10208400DFE2B3E7470123A2FA00B3854A0193E6EE
:102094001600D4C15C43A1054A8593E717005CC3CD
:1020A400EFE0DFBE79BFF19BB386370113060A0167
:1020B40063D8C618058BE31D07EE5EC6832B84FF29
:1020C4005AC8B38B7A4103A74B00719BBA97338BE1
:1020D4003701E349CBEC83A7CB0003A78B0013861E
:1020E400C9FF930640025CC798C793848B0063E8DA
:1020F400C61C4D47A687637EC7001840ED4723A43E
:10210400EB00584023A6EB0063EBC71C2104938724
:102114000B01184098C35840D8C3184498C7338754
:102124004B01B3074B412324EC0093E717005CC336
:1021340083A74B004A85858BB3E7470123A2FB00A5
:10214400EFF08FB4424BB24B224C01B714406D47B1
:1021540014C1544054C1636AC70C13078400930725
:10216400850049B58327C5FF224CF19BBE9945BD27
:1021740083A7CB0083A68B001386C9FF9305400277
:10218400DCC694C793848B0063ECC508CD46A68750
:1021940063FEC6001840ED4723A4EB00584023A675
:1021A400EB0063E5C70C210493870B01144094C32F
:1021B4005440D4C3144494C7DA89DE8A424BB24BE8
:1021C400224C2684A9BDA285EFF03FB815B5DC46A4
:1021D40098461386C9FF930640025CC798C703A7B5
:1021E4008B0083A7CB0093848B005CC798C763E9FB
:1021F400C6024D47A687637EC7001840ED4723A457
:10220400EB00584023A6EB0063EDC7082104938735
:102214000B01184098C35840D8C3184498C769BFE5
:10222400A2852685EFF07FB241BF184418C55844F3
:1022340058C5630FF60413070401930705015DB342
:10224400D29AB387464123245C0193E7170023A263
:10225400FA008327C4FF4A85A284858BB3E747012C
:10226400232EF4FEEFF04FA2224CC5B31C4423A846
:10227400FB005C4423AAFB006308B6044104938773
:102284008B012DB74A85EFF02FA08144224C75BBFA
:102294001448130784019307850114C9544854C989
:1022A40091B318449307400223A8EB00584423AA8F
:1022B400EB006302F604410493878B0199BFA28566
:1022C4002685EFF09FA8A1BD184893870B026104EF
:1022D40023ACEB000327C4FF23AEEB00C1BD1C44B9
:1022E40023A8FB005C4423AAFB006301D60241043B
:1022F40093878B0139BD184893870B02610423AC83
:10230400EB000327C4FF23AEEB0021B718489387E3
:102314000B0223ACEB005848610423AEEB00D5BBA1
:102324008397C5005971A2D486D613F727002E844B
:1023340019CB9387350405479CC19CC9D8C9B650AD
:102344002654656182808395E500CAD0A6D22A8985
:1023540063CD05043000A9226347050493050040BA
:102364004A85B244EFE07FB48317C4003DCD3D6796
:1023740093E7070893060040F98C2316F40008C07D
:1023840008C854C809676396E4088315E4004A85BD
:10239400892A05678317C4001307078015CDF19BAD
:1023A40093E7170015A88317C40093F4070893B4A0
:1023B4001400B304904093F4043C938404044A85C9
:1023C400A685EFE09FAE8317C40005C193E7070815
:1023D40008C008C844C80147D98FB6502316F40072
:1023E4002654965406596561828013F7072019EF25
:1023F400F19B1307340493E7270085469654065946
:102404002316F40018C018C854C815BF96540659AA
:102414003DB7056713070780C1B75971A2D42E844D
:102424008395E500A6D2CAD086D6B284368963CB1A
:1024340005023000B52063470502B247BD667977CF
:10244400F58FBA97B650265493B717002320F90096
:102454001307004098C00565965406591305058076
:10246400656182808357C40093F7070891CFB65003
:10247400265481472320F9001307000498C0065905
:102484009654014565618280B65026542320F90094
:102494001307004098C0065996540145656182802F
:1024A40041112E8722C4B2852A843A8523AA01D4F5
:1024B40006C66528FD576306F500B2402244410173
:1024C400828026C2938441D59C4099C7B2401CC0E7
:1024D4002244924441018280B24022449244410108
:1024E4008280411122C42A842E8523AA01D406C6DF
:1024F4004D28FD576306F500B24022444101828015
:1025040026C2938441D59C4099C7B2401CC0224442
:10251400924441018280B24022449244410182802B
:10252400411106C622C493089003730000002A8454
:1025340063470500B240228522444101828033046E
:102544008040D12200C17D54F5B79308D0057300B3
:1025540000006343050001A0411122C42A8406C679
:10256400330480404D2200C101A0757126C306C703
:10257400AE8422C58A8593080005730000002A846E
:10258400634B050026858A852122BA4022852A4488
:102594009A444961828033048040B52200C17D544D
:1025A400D5B759712C0086D6C937FD576308F50095
:1025B4003245B6503581058965618280B650014542
:1025C40065618280411106C622C49308E00373004A
:1025D40000002A8463470500B24022852244410159
:1025E400828033048040052200C17D54F5B7411137
:1025F40006C622C49308F003730000002A846347CC
:102604000500B24022852244410182803304804087
:10261400DD2800C17D54F5B7938681D898424111D5
:1026240006C6AA8719EB9308600D014573000000E4
:102634007D562A876302C50288C23385E700930862
:10264400600D730000009842BA976317F500B2401A
:1026540088C23A85410182807D20B240B1471CC1C5
:102664007D5541018280411106C622C493080004AD
:10267400730000002A8463470500B2402285224487
:102684004101828033048040BD2800C17D54F5B7E8
:1026940041119C4183A3450183A2850183AFC501F8
:1026A40003AF050283AE050303AE050403A385034C
:1026B40003A8850483A8C504B04D22C626C4804956
:1026C4008445F44DB8552310F500FC5523119500AD
:1026D40040C123147500231555002316F501231753
:1026E400E5012328D5012326C50523246504232CCD
:1026F4000501232E150110D554D5324418DD5CDDB7
:0C270400A2444101828003A5C1D3828061
:1027100048656C6C6F2C20524953432D56210000A4
:022720000A00AD
:0427240000000000B1
:08372800D0000100480101007E
:043730001201010081
:103738000000000003000000DC3C01000000000065
:1037480000000000DC3C0100443D0100AC3D0100EC
:103758000000000000000000000000000000000061
:103768000000000000000000000000000000000051
:103778000000000000000000000000000000000041
:103788000000000000000000000000000000000031
:103798000000000000000000000000000000000021
:1037A8000000000000000000000000000000000011
:1037B8000000000000000000000000000000000001
:1037C80000000000000000000000000000000000F1
:1037D80000000000000000000100000000000000E0
:1037E8000E33CDAB34126DE6ECDE05000B000000A5
:1037F80000000000000000000000000000000000C1
:1038080000000000000000000000000000000000B0
:1038180000000000000000000000000000000000A0
:103828000000000000000000000000000000000090
:103838000000000000000000000000000000000080
:103848000000000000000000000000000000000070
:103858000000000000000000000000000000000060
:10386800000000000000000068380100683801000E
:10387800703801007038010078380100783801008C
:10388800803801008038010088380100883801003C
:1038980090380100903801009838010098380100EC
:1038A800A0380100A0380100A8380100A83801009C
:1038B800B0380100B0380100B8380100B83801004C
:1038C800C0380100C0380100C8380100C8380100FC
:1038D800D0380100D0380100D8380100D8380100AC
:1038E800E0380100E0380100E8380100E83801005C
:1038F800F0380100F0380100F8380100F83801000C
:1039080000390100003901000839010008390100B7
:103918001039010010390100183901001839010067
:103928002039010020390100283901002839010017
:1039380030390100303901003839010038390100C7
:103948004039010040390100483901004839010077
:103958005039010050390100583901005839010027
:1039680060390100603901006839010068390100D7
:103978007039010070390100783901007839010087
:103988008039010080390100883901008839010037
:1039980090390100903901009839010098390100E7
:1039A800A0390100A0390100A8390100A839010097
:1039B800B0390100B0390100B8390100B839010047
:1039C800C0390100C0390100C8390100C8390100F7
:1039D800D0390100D0390100D8390100D8390100A7
:1039E800E0390100E0390100E8390100E839010057
:1039F800F0390100F0390100F8390100F839010007
:103A0800003A0100003A0100083A0100083A0100B2
:103A1800103A0100103A0100183A0100183A010062
:103A2800203A0100203A0100283A0100283A010012
:103A3800303A0100303A0100383A0100383A0100C2
:103A4800403A0100403A0100483A0100483A010072
:103A5800503A0100503A0100583A0100583A010022
:103A6800603A0100603A0100683A0100683A0100D2
:103A7800703A0100703A0100783A0100783A010082
:103A8800803A0100803A0100883A0100883A010032
:103A9800903A0100903A0100983A0100983A0100E2
:103AA800A03A0100A03A0100A83A0100A83A010092
:103AB800B03A0100B03A0100B83A0100B83A010042
:103AC800C03A0100C03A0100C83A0100C83A0100F2
:103AD800D03A0100D03A0100D83A0100D83A0100A2
:103AE800E03A0100E03A0100E83A0100E83A010052
:103AF800F03A0100F03A0100F83A0100F83A010002
:103B0800003B0100003B0100083B0100083B0100AD
:103B1800103B0100103B0100183B0100183B01005D
:103B2800203B0100203B0100283B0100283B01000D
:103B3800303B0100303B0100383B0100383B0100BD
:103B4800403B0100403B0100483B0100483B01006D
:103B5800503B0100503B0100583B0100583B01001D
:103B6800603B0100603B0100683B0100683B0100CD
:103B7800703B0100703B0100783B0100783B01007D
:103B8800803B0100803B0100883B0100883B01002D
:103B9800903B0100903B0100983B0100983B0100DD
:103BA800A03B0100A03B0100A83B0100A83B01008D
:103BB800B03B0100B03B0100B83B0100B83B01003D
:103BC800C03B0100C03B0100C83B0100C83B0100ED
:103BD800D03B0100D03B0100D83B0100D83B01009D
:103BE800E03B0100E03B0100E83B0100E83B01004D
:103BF800F03B0100F03B0100F83B0100F83B0100FD
:103C0800003C0100003C0100083C0100083C0100A8
:103C1800103C0100103C0100183C0100183C010058
:103C2800203C0100203C0100283C0100283C010008
:103C3800303C0100303C0100383C0100383C0100B8
:103C4800403C0100403C0100483C0100483C010068
:103C5800503C0100503C0100583C0100583C010018
:083C6800603C0100603C01001A
:103C70000000000048370100A83C0100FFFFFFFFE3
:043C8000000002003E
:04000003100000E207
:00000001FF
